:1001F4005F063D2F666B7B0E7F6F7E735937797870
:10020400FEFE016D3100406E54505C1C9F063D2F74
:10021400A6ABBB0EBFAFBEB39937B9B8FEFE016D36
:100224003100406E54505C1C5100312160617100FA
:1002340071617071513171700E064C4E464A4A0E0E
:080244004E4E4E4208464848A8
:10036E00AE08AF097C0012024C7F0A7E00CFCDCFC3
:0B037E00CECCCE12024CAD07C2002214
:1002E6007E80C2B20000E4FDEE30E704D2B58002A3
:1002F600C2B5C2B40000D2B400EE25E0FE0DBD04C6
:10030600E7E4FDEF30E704D2B58002C2B5C2B4001F
:1003160000D2B400EF25E0FF0DBD08E7D2B2000021
:0103260022B4
:1002A1007E05EEC43354E0FEE4FDEE30E704D2B542
:1002B1008002C2B5C2B40000D2B400EE25E0FE0D4A
:1002C100BD03E7EF25E025E0FFE4FDEF30E704D2D1
:1002D100B58002C2B5C2B40000D2B400EF25E0FF80
:0402E1000DBD06E762
:0102E50022F6
:10035200E4FEEF30E704D2B58002C2B5C2B40000B9
:0B036200D2B400EF25E0FF0EBE08E75C
:01036D00226D
:10032700D2B2C2B4D2B5E4FF000FBF80FB7F521236
:1003370002E67F301202E6E4FF1202E67F0A1202AB
:0B034700E67F021202E67F060202E6DB
:04018700AC07AB0511
:10018B00E4FAC2B2ECC394045019EC2C24FEFAFF2F
:10019B001202A1EB9001F49330000424808000FF45
:1001AB00120352EC640470207F071202A1EB900241
:1001BB002C93FF120352D2B2C2B27F091202A1EBEF
:1001CB0090023C93FF120352ECD394044018EC2C96
:1001DB0004FAFF1202A1EB900210933000042440AA
:0801EB008000FF120352D2B2A2
:0101F30022E9
:1003B800C2B2E4FF1202A1E4FDE4FF1203520DBD34
:0403C80011F7D2B2A5
:0103CC00220E
:100389007FEB12039F7FEB12039F7FEB12039F7F8B
:06039900EB12039F7FEB55
:03039F00DFFE225C
:1003A200AD07AC06ED1D70011C144C6008120389E8
:0603B20012038980EF2216
:100003001203271203B80509E50970020508AE08B3
:10001300FF7C037DE812024C7F641203797F011297
:1000230001877D6412036E7F02120187AE08AF0958
:100033007C007D0A12024CC2007F031201877DA05F
:1000430012036E7F041201877F327E001203A20522
:100053000BE50B7002050A12008D120149050BE531
:100063000B7002050A12008D120149050BE50B7096
:1000730002050A1200EB120168050BE50B7002057D
:0A0083000A1200EB120168020009E6
:10008D00AE0AFF7C277D1012024C7E037FE8CFCD98
:10009D00CFCECCCE12024CAD07C2007F0512018728
:1000AD00AE0AAF0B7C037DE812024C7E007F64CF5D
:1000BD00CDCFCECCCE12024CAD07C2007F061201C1
:1000CD0087AE0AAF0B7C007D6412024C7E007F0A66
:1000DD00CFCDCFCECCCE12024CAD07C20022AE0A90
:1000ED00FF7C277D1012024C7E037FE8CFCDCFCE53
:1000FD00CCCE12024CAD07C2007F05120187AE0AAD
:10010D00AF0B7C037DE812024C7E007F64CFCDCF18
:10011D00CECCCE12024CAD07C2007F06120187AEC7
:10012D000AAF0B7C007D6412024C7E007F0ACFCD9E
:10013D00CFCECCCE12024CAD07C200227F071201EA
:10014D0087AE0AAF0B7C007D0A12024CC2007F08FD
:10015D001201877F327E001203A2227F07120187D0
:10016D00AE0AAF0B7C007D0A12024CC2007F081252
:0A017D0001877F327E001203A222E8
:030000000203CD2B
:0C03CD00787FE4F6D8FD75812002000363
:10024C00BC000BBE0029EF8DF084FFADF022E4CC96
:10025C00F875F008EF2FFFEE33FEEC33FCEE9DEC5F
:10026C00984005FCEE9DFE0FD5F0E9E4CEFD22EDA5
:10027C00F8F5F0EE8420D21CFEADF075F008EF2FEF
:10028C00FFED33FD4007985006D5F0F222C398FDE0
:05029C000FD5F0EA227D
:00000001FF
