:10056E00473136322054696D65722056312E303047
:01057E00007C
:10031E007FFA1204147FFA1204147FFA1204147F67
:10032E00FA120414D2B47FFA1204147FFA120414CF
:10033E007FFA1204147FFA020414120500AE14AFF1
:10034E00157D3C7C001202C97F0A7E00CFCDCFCE38
:10035E00CCCE0202C92430FD120500AE14AF157CBE
:10036E000E7D100202C9AE08AF097C000202C97CE4
:0C037E00007D0A0202C92430FD020500C7
:1003DB007FE11204147FE11204147FE11204147FF5
:1003EB00E11204147FE11204147FE11204147FE183
:1003FB001204147FE11204147FE11204147FE11242
:09040B0004147FE11204147FE1E6
:03041400DFFE22E6
:070516007F381205467F0348
:10051D00AE07AF061EEF60081203DB1203DB80F29D
:01052D0022AB
:10054600AD077F0112051DC295C294D2938DA000FE
:0405560000C293222A
:10055A00AD077F0112051DD295C294D2938DA000DA
:04056A0000C2932216
:0A05B6007F011205467F0502051DB6
:10052E00AE07AC03ED7005EE24808003EE24C0FF11
:08053E00120546AF0402055A44
:100473001205161205167F381205467F0512051D53
:100483007F381205467F081205467F011205467F15
:09049300061205187F0C02054653
:0404FC00ED2430FDBE
:10050000AB05EFC394085004E4FD8006EF24F8FF28
:060510007D0112052E2200
:100447008F0E8B0F8A108911AB0FAA10A9111202F8
:100457009EFD6017AF0E120500050E74012511F5FC
:0C04670011E43510F510530E0F80DD225B
:10049C00EF4488F5BC00000000E5BC30E4FB53BC25
:1004AC00EFAFBDEF75F004A4ADBE7C002DFFEC35B5
:0304BC00F0FE222D
:0F058F00759D40E4F5BD75BC807F02FE0204E15E
:1004E100EF1FAA0670011E4A60107C137D88ED1D66
:0A04F100AA0470011C4A60E880F4C0
:0104FB0022DE
:0C04BF002515F515E43514F51412038A18
:1004CB00E4FEC2B47FFA12041412031E7FFA120464
:0504DB00140EBE64EDEB
:0104E00022F9
:0B059E00E4FEC2B412031E0EBE64F7A0
:0105A900222F
:1001D400750E00750F967D5A7C027B3F7A41C3EF02
:1001E400945AEE9402500C750E00750FC67D1E7B5A
:1001F400307A3CC3EF941EEE9402500E750E0075D7
:100204000FE17C027D037B017A01C3EF9403EE943A
:1002140002500E750E00750FFA7C017DE47B197A8D
:100224001FC3EF94E4EE9401500E750E01750F1385
:100234007C017DCB7B017A01C3EF94CBEE9401501A
:100244000E750E01750F2C7C017DB77B197A14C3D2
:10025400EF94B7EE9401500E750E01750F5E7C019C
:100264007D8C7B327A2BC3EF948CEE9401500E7507
:100274000E01750FF67C017D237B347A24C3EF9D38
:10028400FFEE9CFEAD037C001202B7AD021202C960
:09029400C3E50F9FFFE50E9EFE7D
:01029D00223E
:10057F00438902758C05758A05D2AFD2A9D28C2218
:03000B00020417D5
:10041700C0E0C0D00513E51370020512B4CD1CE58A
:1004270012B41C1775120075130030000EE5154540
:10043700146008E515151570021514D0D0D0E032F8
:10038A0012036912037DEF7F0412036312037D7F58
:10039A00051204FC7D3A7F061203667F3C1203585D
:1003AA0012037DEF7F071203637E007F3C12035A1C
:1003BA0012037D7F081204FC7D3A7F09120348EF7D
:1003CA002430FD7F0A120348ED2430FD7F0B02051D
:0103DA000022
:10000E0075BB70C20012058F12057F1204731205A4
:10001E00B61204CBE4F514F515F50A750B012000A4
:10002E00747F1E12051D050DE50D7002050C64C4CE
:10003E007004E50C6409705DF50CF50D7F06120475
:10004E009CC374FF9FFF74039EFE1201D48E088F13
:10005E00091205B6D3E5099463E5089400400B7DBB
:10006E0064120374EF7F06120384AE08AF097D6439
:10007E00120351EF7F071203847D2E7F08120500B5
:10008E007D0A120374ED2430FD7F091205007D6395
:10009E007F0A120500E50B65157004E50A6514600C
:1000AE000E12038A85140A85150BA200B392C02086
:1000BE00903E7F1E12051D209036C200743C120425
:1000CE00BFE4FA2090237F1912051DEAC394325023
:1000DE00010AEAD3942840EB74781204BF7FC81249
:1000EE00051D7F6412051D80DAE4F512F513D200AA
:1000FE002091367F1E12051D20912ED3E515943BBF
:10010E00E5149400401374C42515F51574FF3514C9
:10011E00F514E4F512F513D20012038A1204CB2063
:10012E0091077F1E12051D80F620923A7F1E120542
:10013E001D209232C200E4F512F513F514F5157B6D
:10014E00FF7A05796EFF1204471204CB7FFA800501
:10015E002092077F1E12051D80F61205B612038A25
:10016E001204CB1204CB20000302002CE51545141B
:10017E00600302002C12038AC200E4FDB2C0120416
:10018E00CB2090027D642091027D642092027D64DA
:10019E007F6412051DB2C012059E2090027D642060
:1001AE0091027D642092027D647F6412051D0DED27
:1001BE00C3941440C73090FD3091FD3092FD7FC83E
:0601CE0012051D02002CC9
:030000000205AA4C
:0C05AA00787FE4F6D8FD75812002000E79
:10029E00BB010689828A83E0225002E722BBFE025E
:0902AE00E32289828A83E4932291
:1002B700EF8DF0A4A8F0CF8CF0A428CE8DF0A42E5B
:0202C700FE2215
:1002C900BC000BBE0029EF8DF084FFADF022E4CC19
:1002D900F875F008EF2FFFEE33FEEC33FCEE9DECE2
:1002E900984005FCEE9DFE0FD5F0E9E4CEFD22ED28
:1002F900F8F5F0EE8420D21CFEADF075F008EF2F72
:10030900FFED33FD4007985006D5F0F222C398FD62
:050319000FD5F0EA22FF
:00000001FF
