:100225005F063D2F666B7B0E7F6F7E73593779783E
:10023500FEFE016D3100206E54505C1C9F063D2F63
:10024500A6ABBB0EBFAFBEB39937B9B8FEFE016D05
:100255003100206E54505C1C5100312160617100E9
:1002650071617071513171700E064C4E464A4A0EDD
:080275004E4E4E420846484877
:0E039A000218000008101412031814000007C7
:1003790075F00A84ADF0C2002275F00A84FDC2004E
:010389002251
:1002C2007E80C2C60000E4FDEE30E704D2C48002A4
:1002D200C2C4C2C50000D2C500EE25E0FE0DBD04B9
:1002E200E7E4FDEF30E704D2C48002C2C4C2C50015
:1002F20000D2C500EF25E0FF0DBD08E7D2C6000021
:0103020022D8
:10027D007E05EEC43354E0FEE4FDEE30E704D2C457
:10028D008002C2C4C2C50000D2C500EE25E0FE0D3D
:10029D00BD03E7EF25E025E0FFE4FDEF30E704D2F5
:1002AD00C48002C2C4C2C50000D2C500EF25E0FF64
:0402BD000DBD06E786
:0102C100221A
:10032E00E4FEEF30E704D2C48002C2C4C2C50000AE
:0B033E00D2C500EF25E0FF0EBE08E76F
:010349002291
:10030300D2C6C2C5D2C4E4FF000FBF80FB7F521226
:1003130002C27F301202C2E4FF1202C27F0A12023B
:0B032300C27F021202C27F060202C26B
:0401B800AC07AB05E0
:1001BC00E4FAC2C6ECC394045019EC2C24FEFAFFEA
:1001CC0012027DEB9002259330000424808000FF06
:1001DC0012032EEC640470207F0712027DEB900258
:1001EC005D93FF12032ED2C6C2C67F0912027DEBAD
:1001FC0090026D93FF12032EECD394044018EC2C58
:10020C0004FAFF12027DEB9002419330000424406B
:08021C008000FF12032ED2C680
:0102240022B7
:10036400C2C6E4FF12027DE4FDE4FF12032E0DBDBC
:0403740011F7D2C6E5
:010378002262
:0100060022D7
:0100070022D6
:10038A00438902758C05758A05D2AFD2A9D28C220F
:03000B0002000EE2
:07000E00C0E0C0D075D0086E
:100015007F1F0519E51970020518D39456E5189444
:100025000E40727518007519000516E516D3943B38
:1000350040637516000515E515D3943B40577515B6
:10004500000514E514D39417404B7514000513E50A
:1000550012B4040AB40607B40904B40B011FE5126F
:10006500B402027F1CE51154037007E512B40202C5
:100075007F1DEF3395E0FED3E5139FEE6480F874A2
:10008500809840117513010512E512D3940C4005B3
:050095007512010511C8
:05009A00D0D0D0E032DF
:03000300DFFE22FB
:10034A00AD07AC06ED1D70011C144C600C7FE11268
:0A035A0000037FE112000380EB2294
:10009F0075BB7012030312036412038A1200071256
:1000AF000006E5141203827F011201B8E514120352
:1000BF00797F021201B8C2007D167F031201B8E5E5
:1000CF00151203827F041201B8E5151203797F051B
:1000DF001201B8C2007D167F061201B8E516120391
:1000EF00827F071201B8E5161203797F081201B853
:1000FF007FFA7E0012034A20900205142091020518
:10010F00152092021515E514D394174003E4F51446
:0D011F00E515D3943B408BE4F5150200B1CB
:0300000002012CCE
:0C012C00787FE4F6D8FD75812002017395
:1001380002009FE493A3F8E493A34003F68001F23E
:1001480008DFF48029E493A3F85407240CC8C333C8
:10015800C4540F4420C8834004F456800146F6DF97
:10016800E4800B010204081020408090039AE47E8A
:10017800019360BCA3FF543F30E509541FFEE4938C
:10018800A360010ECF54C025E060A840B8E493A353
:10019800FAE493A3F8E493A3C8C582C8CAC583CA7E
:1001A800F0A3C8C582C8CAC583CADFE9DEE780BE36
:0103A8000054
:00000001FF
