:100070005F063D2F666B7B0E7F6F7E7359377978F5
:10008000FEFE016D3100406E54505C1C9F063D2FFA
:10009000A6ABBB0EBFAFBEB39937B9B8FEFE016DBC
:1000A0003100406E54505C1C510031216061710080
:1000B00071617071513171700E064C4E464A4A0E94
:0800C0004E4E4E42084648482E
:100162007E80C2B20000E4FDEE30E704D2B5800228
:10017200C2B5C2B40000D2B400EE25E0FE0DBD044B
:10018200E7E4FDEF30E704D2B58002C2B5C2B400A5
:1001920000D2B400EF25E0FF0DBD08E7D2B20000A7
:0101A200223A
:10011D007E05EEC43354E0FEE4FDEE30E704D2B5C7
:10012D008002C2B5C2B40000D2B400EE25E0FE0DCF
:10013D00BD03E7EF25E025E0FFE4FDEF30E704D256
:10014D00B58002C2B5C2B40000D2B400EF25E0FF05
:04015D000DBD06E7E7
:01016100227B
:1001F600E4FEEF30E704D2B58002C2B5C2B4000017
:0B020600D2B400EF25E0FF0EBE08E7B9
:0102110022CA
:1001A300D2B2C2B4D2B5E4FF000FBF80FB7F5212BC
:1001B30001627F30120162E4FF1201627F0A1201C1
:0B01C300627F021201627F06020162EF
:04000300AC07AB0596
:10000700E4FAC2B2ECC394045019EC2C24FEFAFFB4
:1000170012011DEB9000709330000424808000FFD4
:100027001201F6EC640470207F0712011DEB9000AB
:10003700A893FF1201F6D2B2C2B27F0912011DEBDB
:100047009000B893FF1201F6ECD394044018EC2CFF
:1000570004FAFF12011DEB90008C9330000424403A
:080067008000FF1201F6D2B285
:01006F00226E
:10024100C2B2E4FF12011DE4FDE4FF1201F60DBD8F
:0402510011F7D2B21D
:010255002286
:100212007FEB1202287FEB1202287FEB1202287F6B
:06022200EB1202287FEB45
:03022800DFFE22D4
:10022B00AD07AC06ED1D70011C144C6008120212D8
:06023B0012021280EF2206
:1001CE001201A3120241750800750901AD09AF05B0
:1001DE00C2001200030509E50970020508C394095F
:0801EE00E508940040E680FEE4
:03000000020256A3
:0C025600787FE4F6D8FD7581200201CE0F
:1000C800BC000BBE0029EF8DF084FFADF022E4CC1C
:1000D800F875F008EF2FFFEE33FEEC33FCEE9DECE5
:1000E800984005FCEE9DFE0FD5F0E9E4CEFD22ED2B
:1000F800F8F5F0EE8420D21CFEADF075F008EF2F75
:10010800FFED33FD4007985006D5F0F222C398FD65
:050118000FD5F0EA2202
:00000001FF
