:1000F3005F063D2F666B7B0E7F6F7E735937797872
:10010300FEFE016D3100206E54505C1C9F063D2F96
:10011300A6ABBB0EBFAFBEB39937B9B8FEFE016D38
:100123003100206E54505C1C51003121606171001C
:1001330071617071513171700E064C4E464A4A0E10
:080143004E4E4E4208464848AA
:1002700075F00A84ADF0C2002275F00A84FDC20058
:01028000225B
:100190007E80C2B20000E4FDEE30E704D2B58002FA
:1001A000C2B5C2B40000D2B400EE25E0FE0DBD041D
:1001B000E7E4FDEF30E704D2B58002C2B5C2B40077
:1001C00000D2B400EF25E0FF0DBD08E7D2B2000079
:0101D000220C
:10014B007E05EEC43354E0FEE4FDEE30E704D2B599
:10015B008002C2B5C2B40000D2B400EE25E0FE0DA1
:10016B00BD03E7EF25E025E0FFE4FDEF30E704D228
:10017B00B58002C2B5C2B40000D2B400EF25E0FFD7
:04018B000DBD06E7B9
:01018F00224D
:10022600E4FEEF30E704D2B58002C2B5C2B40000E6
:0B023600D2B400EF25E0FF0EBE08E789
:01024100229A
:1001D100D2B2C2B4D2B5E4FF000FBF80FB7F52128E
:1001E10001907F30120190E4FF1201907F0A120109
:0B01F100907F021201907F0602019037
:04008600AC07AB0513
:10008A00E4FAC2B2ECC394045019EC2C24FEFAFF31
:10009A0012014BEB9000F39330000424808000FFA0
:1000AA00120226EC640470207F0712014BEB9001C8
:1000BA002B93FF120226D2B2C2B27F0912014BEB76
:1000CA0090013B93FF120226ECD394044018EC2CC7
:1000DA0004FAFF12014BEB90010F93300004244005
:0800EA008000FF120226D2B2D1
:0100F20022EB
:10025B00C2B2E4FF12014BE4FDE4FF1202260DBD16
:04026B0011F7D2B203
:01026F00226C
:100242007FEB1202587FEB1202587FEB1202587FAB
:06025200EB1202587FEBE5
:03025800DFFE22A4
:1001FC001202107FFA1202107FFA1202107FFA120A
:04020C0002107FFA63
:10021000AD07AC06ED1D70011C144C6008120242C3
:0602200012024280EF22F1
:100003001201D112025B750808E4F509F9E508123B
:1000130002797F01120086E5081202707F02120046
:1000230086C2007D167F03120086E5091202797FDE
:1000330004120086E5091202707F05120086C200D1
:100043007D167F06120086E91202797F0712008669
:10005300E91202707F081200867FFA7E001201FC0B
:100063007FFA1201FC09E9643C70A2F90509E5096C
:10007300643C7099F5090508E5086418708FF50864
:0300830002001068
:0300000002028178
:0C028100787FE4F6D8FD758120020003B0
:00000001FF
