:100003004C43443A0047313632204C434420444564
:100013004D4F2E204350553D5354433132433541C8
:1000230036305332204C51465034342032322E3144
:100033003138344D487A2C205043423D4D4C3230B8
:100043003138303730372847313632292C204C436A
:10005300443D313630312E20323031382D372D3377
:10006300312C204F4B212020202020202020202015
:0A0073002020202020202020200063
:10017C00B2C07FFA1201BD7FFA0201BD7401250CD9
:10018C00F50CE4350BF50B22AB0AAA0BA90C0201FA
:01019C009DC5
:10007D007FE11200B67FE11200B67FE11200B67F7C
:10008D00E11200B67FE11200B67FE11200B67FE10A
:10009D001200B67FE11200B67FE11200B67FE112C9
:0900AD0000B67FE11200B67FE10C
:0300B600DFFE2248
:0701B6007F381201FC7F03FA
:1001BD00AE07AF061EEF600812007D12007D80F2C3
:0101CD00220F
:1001FC00AD077F011201BDC295C294D2938DA000B0
:04020C0000C2932277
:10021000AD077F011201BDD295C294D2938DA0008B
:0402200000C2932263
:0A0230007F011201FC7F050201BDF1
:1001CE00AE07AC03ED7005EE24808003EE24C0FF75
:0801DE001201FCAF0402021043
:100153001201B61201B67F381201FC7F051201BDF0
:100163007F381201FC7F081201FC7F011201FC7F22
:09017300061201B87F0C0201FC28
:1001E600AB05EFC394085004E4FD8006EF24F8FF46
:0601F6007D011201CE2282
:100127008F098B0A8A0B890CAB0AAA0BA90C12013F
:100137009DFD6017AF091201E605097401250CF54D
:0C0147000CE4350BF50B53090F80DD2292
:1000F1008F098B0A8A0B890C120194600CAF0D15C4
:100101000DEF600512018880EF120194FD6016AFBA
:100111000E150EEF600FAF091201E60509120188F5
:0601210053090F80E422E7
:1000B9001201531202307BFF7A007903E4FF120127
:1000C90027E4F5087BFF7A00790885080D750E0A83
:1000D9007F051200F10508E50875F0628485F008CE
:0800E90012017C12017C80DC95
:03000000020224D5
:0C022400787FE4F6D8FD75810E0200B969
:10019D00BB010689828A83E0225002E722BBFE0260
:0901AD00E32289828A83E4932293
:00000001FF
