:10012A005F063D2F666B7B0E7F6F7E73593779783A
:10013A00FEFE016D3100206E54505C1C9F063D2F5F
:10014A00A6ABBB0EBFAFBEB39937B9B8FEFE016D01
:10015A003100206E54505C1C5100312160617100E5
:10016A0071617071513171700E064C4E464A4A0ED9
:08017A004E4E4E420846484873
:10027E0075F00A84ADF0C2002275F00A84FDC2004A
:01028E00224D
:1001C7007E80C2B40000E4FDEE30E704D2B78002BF
:1001D700C2B7C2B60000D2B600EE25E0FE0DBD04E0
:1001E700E7E4FDEF30E704D2B78002C2B7C2B6003A
:1001F70000D2B600EF25E0FF0DBD08E7D2B400003E
:0102070022D4
:100182007E05EEC43354E0FEE4FDEE30E704D2B760
:100192008002C2B7C2B60000D2B600EE25E0FE0D64
:1001A200BD03E7EF25E025E0FFE4FDEF30E704D2F1
:1001B200B78002C2B7C2B60000D2B600EF25E0FF98
:0401C2000DBD06E782
:0101C6002216
:10023300E4FEEF30E704D2B78002C2B7C2B60000D3
:0B024300D2B600EF25E0FF0EBE08E77A
:01024E00228D
:10020800D2B4C2B6D2B7E4FF000FBF80FB7F521250
:1002180001C77F301201C7E4FF1201C77F0A12012C
:0B022800C77F021201C77F060201C75A
:0400BD00AC07AB05DC
:1000C100E4FAC2B4ECC394045019EC2C24FEFAFFF8
:1000D100120182EB90012A9330000424808000FFFA
:1000E100120233EC640470207F07120182EB90014D
:1000F1006293FF120233D2B4C2B47F09120182EBC0
:1001010090017293FF120233ECD394044018EC2C4B
:1001110004FAFF120182EB9001469330000424405F
:080121008000FF120233D2B48A
:0101290022B3
:10026900C2B4E4FF120182E4FDE4FF1202330DBDC2
:0402790011F7D2B4F3
:01027D00225E
:03029B00DFFE2261
:10024F00AD07AC06ED1D70011C144C600C7FE11264
:0A025F00029B7FE112029B80EB225C
:10000300120208120269750808E4F9F509E50812F5
:1000130002877F011200BDE50812027E7F021200F3
:10002300BDC2007D167F031200BDE91202877F0463
:100033001200BDE912027E7F051200BDC2007D16CB
:100043007F061200BDE5091202877F071200BDE596
:100053000912027E7F081200BD7FFA7E0012024F52
:100063007FFA12024F7FFA12024F209002050820F6
:10007300910109209201190509E509D3943C400334
:10008300E4F509E9D3943B4002793BE508D394179F
:100093004003E4F508E509643C6003020010F50938
:1000A30009E9643C6003020010F90508E5086418D7
:0A00B3006003020010F508020010BF
:0300000002028F6A
:0C028F00787FE4F6D8FD758120020003A2
:00000001FF
