:100449005F063D2F666B7B0E7F6F7E735937797818
:10045900FEFE016D3100206E54505C1C9F063D2F3D
:10046900A6ABBB0EBFAFBEB39937B9B8FEFE016DDF
:100479003100206E54505C1C5100312160617100C3
:1004890071617071513171700E064C4E464A4A0EB7
:080499004E4E4E420846484851
:10052700AE12AF137D3C7C001203F47F0A7E00CF2E
:10053700CDCFCECCCE0203F47D0A7C001203F4ADFE
:1005470007C201227FC87E000205E9AE12AF137C05
:100557000E7D100203F47C007D0A1203F4C201220F
:1004E6007E80C2800000E4FDEE30E704D283800205
:1004F600C283C2820000D28200EE25E0FE0DBD045A
:10050600E7E4FDEF30E704D2838002C283C28200B3
:1005160000D28200EF25E0FF0DBD08E7D280000083
:0105260022B2
:1004A1007E05EEC43354E0FEE4FDEE30E704D28372
:1004B1008002C283C2820000D28200EE25E0FE0DDE
:1004C100BD03E7EF25E025E0FFE4FDEF30E704D2CF
:1004D100838002C283C2820000D28200EF25E0FF46
:0404E1000DBD06E760
:0104E50022F4
:10060300E4FEEF30E704D2838002C283C28200009B
:0B061300D28200EF25E0FF0EBE08E7DA
:01061E0022B9
:10059700D280C282D283E4FF000FBF80FB7F52125A
:1005A70004E67F301204E6E4FF1204E67F0A120431
:0B05B700E67F021204E67F060204E665
:04030C00AC07AB058A
:10031000E4FAC280ECC394045019EC2C24FEFAFFDA
:100320001204A1EB9004499330010424808000FF63
:10033000120603EC640470207F071204A1EB900402
:100340008193FF120603D280C2807F091204A1EBC1
:1003500090049193FF120603ECD394044018EC2C04
:1003600004FAFF1204A1EB900465933001042440C9
:080370008000FF120603D28099
:010378002262
:10063A00C280E4FF1204A1E4FDE4FF1206030DBD2B
:04064A0011F7D28052
:01064E002289
:1005C200EF4488F5BC00000000E5BC30E4FB53BCFE
:1005D200EFAFBDEF75F004A4ADBE7C002DFFEC358E
:0305E200F0FE2206
:0F068500759D40E4F5BD75BC807F02FE02061F27
:10061F00EF1FAA0670011E4A60107C137D88ED1D26
:0A062F00AA0470011C4A60E880F480
:01063900229E
:0706A0007FFA1206A77F326A
:0306A700DFFE2251
:0405E5007F1E7E00F7
:1005E900AD07AC06ED1D70011C144C600C7FEB12BD
:0A05F90006A77FEB1206A780EB2295
:10066400E4FEC2B41206A0D2B41206A00EBE64F216
:010674002263
:10064F00E4FEC2B47FFA1206A7D2B47FFA1206A74D
:04065F000EBE64EE79
:010663002274
:10024200750E00750F967D5A7C027B3F7A41C3EF93
:10025200945AEE9402500C750E00750FC67D1E7BEB
:10026200307A3CC3EF941EEE9402500E750E007568
:100272000FE17C027D037B017A01C3EF9403EE94CC
:1002820002500E750E00750FFA7C017DE47B197A1F
:100292001FC3EF94E4EE9401500E750E01750F1317
:1002A2007C017DCB7B017A01C3EF94CBEE940150AC
:1002B2000E750E01750F2C7C017DB77B197A14C364
:1002C200EF94B7EE9401500E750E01750F5E7C012E
:1002D2007D8C7B327A2BC3EF948CEE9401500E7599
:1002E2000E01750FF67C017D237B347A24C3EF9DCA
:1002F200FFEE9CFEAD037C001203E2AD021203F49A
:09030200C3E50F9FFFE50E9EFE0E
:01030B0022CF
:10067500438902758C05758A05D2AFD2A9D28C2221
:03000B0002056784
:10056700C0E0C0D00511E51170020510B4C71CE545
:1005770010B4041775100075110030000EE513450F
:10058700126008E513151370021512D0D0D0E032AF
:1003790012055212053F7F011203D312055D7F0258
:1003890012030CC2017D167F031203D37F3C1205B1
:100399003412053F7F0412030C1205527E007F3C84
:1003A90012053612055D7F0512030CC2017D167F09
:1003B9000612030C120527AD07C2017F0712030CB1
:1003C900120527C2017F0802030C12030CAE12AFFB
:0903D900137C0E7D101203F422C6
:10000E0075BB70C200120685120675120597120690
:10001E003A120664E4F512F513F50A750B01300079
:10002E00030200B81205E5050DE50D7002050C641E
:10003E00A87004E50C64617071D2C0F50CF50D7FEB
:10004E00061205C2C374FF9FFF74039EFE12024286
:10005E008E088F09C2017F0112020E7F0212030C5D
:10006E00C2017F0312020E7F0412030CD3E5099422
:10007E0063E5089400400EAE08AF097D6412054199
:10008E007F0412030CAE08AF097D6412052DAD0777
:10009E00C2017F051202327F061202327F0712035F
:1000AE000CC2017D157F0812030CE50B651370045D
:1000BE00E50A6512600912037985120A85130B2071
:1000CE0090411205E520903BE4F50CF50DC200744D
:1000DE003C120222E4F92090237F197E001205E9DA
:1000EE00E9C39432500109E9D3942840E974781297
:1000FE00022212054B7F641205E980DAE4F510F551
:10010E0011D2002091371205E5209131E4F50CF55E
:10011E000DD3E513943BE5129400401374C42513DC
:10012E00F51374FF3512F512E4F510F511D2001225
:10013E0003791206642091051205E580F820926479
:10014E001205E520925EE4F50CF50DC200F510F5F2
:10015E0011F512F513C2017F011202187F0212026D
:10016E003A7F0312030CC2017D0F7F0412030CC2EF
:10017E00017F051202187F0612023A7F0712030C46
:10018E00C2017D167F0812030C1206647FFA7E00F0
:10019E001205E91206641206642092051205E58026
:1001AE00F812037920000302002CE51345126003B8
:1001BE0002002C120379C200E4FBB2C012066420C6
:1001CE0090027B642091027B642092027B64120574
:1001DE004BB2C012064F2090027B642091027B64CA
:1001EE002092027B6412054B0BEBC3941440CB3070
:1001FE0090FD3091FD3092FD12054BD2C002002CC5
:10020E007D1512030CC2017D15227D1612030CC240
:10021E00017D16222513F513E43512F5121203791A
:10022E001206642212030CC2017D152212030CC2A7
:04023E00017D162206
:0300000002069461
:0C069400787FE4F6D8FD75812002000E8E
:1003E200EF8DF0A4A8F0CF8CF0A428CE8DF0A42E2F
:0203F200FE22E9
:1003F400BC000BBE0029EF8DF084FFADF022E4CCED
:10040400F875F008EF2FFFEE33FEEC33FCEE9DECB5
:10041400984005FCEE9DFE0FD5F0E9E4CEFD22EDFB
:10042400F8F5F0EE8420D21CFEADF075F008EF2F45
:10043400FFED33FD4007985006D5F0F222C398FD36
:050444000FD5F0EA22D3
:00000001FF
