:10021F005F063D2F666B7B0E7F6F7E735937797844
:10022F00FEFE016D3100206E54505C1C9F063D2F69
:10023F00A6ABBB0EBFAFBEB39937B9B8FEFE016D0B
:10024F003100206E54505C1C5100312160617100EF
:10025F0071617071513171700E064C4E464A4A0EE3
:08026F004E4E4E42084648487D
:0903E700AE08AF097C000201CA56
:1002BC007E80C2800000E4FDEE30E704D283800231
:1002CC00C283C2820000D28200EE25E0FE0DBD0486
:1002DC00E7E4FDEF30E704D2838002C283C28200E0
:1002EC0000D28200EF25E0FF0DBD08E7D2800000B0
:0102FC0022DF
:100277007E05EEC43354E0FEE4FDEE30E704D2839E
:100287008002C283C2820000D28200EE25E0FE0D0A
:10029700BD03E7EF25E025E0FFE4FDEF30E704D2FB
:1002A700838002C283C2820000D28200EF25E0FF72
:0402B7000DBD06E78C
:0102BB002220
:10034B00E4FEEF30E704D2838002C283C282000056
:0B035B00D28200EF25E0FF0EBE08E795
:010366002274
:1002FD00D280C282D283E4FF000FBF80FB7F5212F7
:10030D0002BC7F301202BCE4FF1202BC7F0A120253
:0B031D00BC7F021202BC7F060202BC83
:04014B00AC07AB054D
:10014F00E4FAC280ECC394045019EC2C24FEFAFF9D
:10015F00120277EB90021F9330000424808000FF7F
:10016F0012034BEC640470207F07120277EB9002AE
:10017F005793FF12034BD280C2807F09120277EB95
:10018F0090026793FF12034BECD394044018EC2CAE
:10019F0004FAFF120277EB90023B933000042440E5
:0801AF008000FF12034BD28017
:0101B7002225
:10039C00C280E4FF120277E4FDE4FF12034B0DBDB3
:0403AC0011F7D280F3
:0103B000222A
:10032800EF4488F5BC00000000E5BC30E4FB53BC9A
:10033800EFAFBDEF75F004A4ADBE7C002DFFEC352A
:03034800F0FE22A2
:0F03C200759D40E4F5BD75BC807F02FE020367A8
:10036700EF1FAA0670011E4A60107C137D88ED1DE1
:0A037700AA0470011C4A60E880F43B
:010381002259
:0703DD007FFA1203E47F32F6
:0303E400DFFE2217
:10038200AD07AC06ED1D70011C144C600C7FEB1226
:0A03920003E47FEB1203E480EB228A
:1003B100E4FEC2B41203DDD2B41203DD0EBE64F258
:0103C1002219
:10000300750A00750B967D5A7C027B3F7A41C3EFDC
:10001300945AEE9402500C750A00750BC67D1E7B34
:10002300307A3CC3EF941EEE9402500E750A0075AD
:100033000BE17C027D037B017A01C3EF9403EE9411
:1000430002500E750A00750BFA7C017DE47B197A68
:100053001FC3EF94E4EE9401500E750A01750B1360
:100063007C017DCB7B017A01C3EF94CBEE940150ED
:100073000E750A01750B2C7C017DB77B197A14C3AD
:10008300EF94B7EE9401500E750A01750B5E7C0177
:100093007D8C7B327A2BC3EF948CEE9401500E75DA
:1000A3000A01750BF67C017D237B347A24C3EF9D13
:1000B300FFEE9CFEAD037C001201B8AD021201CA33
:0900C300C3E50B9FFFE50A9EFE58
:0100CC002211
:1000CD0075BB701203C21202FD12039C1203B17FA5
:1000DD0006120328C374FF9FFF74039EFE120003D4
:1000ED008E088F097C007D641201CAAD07C2007FA6
:1000FD000212014B7D641203E77E007F0ACFCDCF44
:10010D00CECCCE1201CAAD07C2007F0312014BC285
:10011D00007D0C7F0412014B7D0A1203E7C2007FA4
:10012D000812014B7FFA7E001203827FFA120382BE
:0E013D007FFA1203827FFA120382B2C0809111
:030000000203D127
:0C03D100787FE4F6D8FD7581200200CD95
:1001B800EF8DF0A4A8F0CF8CF0A428CE8DF0A42E5B
:0201C800FE2215
:1001CA00BC000BBE0029EF8DF084FFADF022E4CC19
:1001DA00F875F008EF2FFFEE33FEEC33FCEE9DECE2
:1001EA00984005FCEE9DFE0FD5F0E9E4CEFD22ED28
:1001FA00F8F5F0EE8420D21CFEADF075F008EF2F72
:10020A00FFED33FD4007985006D5F0F222C398FD62
:05021A000FD5F0EA22FF
:00000001FF
