:100160005F063D2F664B7B0E7F6FEE76F03EF4E42C
:0C017000FEFE016D3100406E54505C1C1E
:10008C007E80C2B20000E4FDEE30E704D2B58002FF
:10009C00C2B5C2B40000D2B400EE25E0FE0DBD0422
:1000AC00E7E4FDEF30E704D2B58002C2B5C2B4007C
:1000BC0000D2B400EF25E0FF0DBD08E7D2B200007E
:0100CC002211
:100003007E05EEC43354E0FEE4FDEE30E704D2B5E2
:100013008002C2B5C2B40000D2B400EE25E0FE0DEA
:10002300BD03E7EF25E025E0FFE4FDEF30E704D271
:10003300B58002C2B5C2B40000D2B400EF25E0FF20
:040043000DBD06E702
:010047002296
:10014400E4FEEF30E704D2B58002C2B5C2B40000C9
:0B015400D2B400EF25E0FF0EBE08E76C
:01015F00227D
:1000FA00D2B2C2B4D2B5E4FF000FBF80FB7F521266
:10010A00008C7F3012008CE4FF12008C7F0A1200F0
:0B011A008C7F0212008C7F0602008C1C
:10012500AC05C2B2EF2F24FEFF120003EC90016074
:0F0135009330000444018000FF120144D2B22233
:10019500C2B2E4FF120003E4FDE4FF1201440DBD09
:0401A50011F7D2B2CA
:0101A9002233
:10017C007FEB1201927FEB1201927FEB1201927FC7
:06018C00EB1201927FEB73
:03019200DFFE226B
:1000CD00C2B27F07120003E4FF120144D2B27FFADD
:0700DD007E001200E47FFA2F
:1000E400AD07AC06ED1D70011C144C600812017CB8
:0600F40012017C80EF22E6
:100048001200FA1201957B01C2B21200CDC2B27F32
:10005800071200037F011200D61200CDE4FAC2B2E3
:100068007F07120003AF031200D67FFA1200DF7F6A
:10007800FA1200DF7FFA1200E4EB25E0FB0ABA0867
:04008800DD02004E47
:030000000201AA50
:0C01AA00787FE4F6D8FD75812002004843
:00000001FF
