:1000EF005F063D2F666B7B0E7F6F7E735937797876
:1000FF00FEFE016D3100206E54505C1C9F063D2F9B
:10010F00A6ABBB0EBFAFBEB39937B9B8FEFE016D3C
:10011F003100206E54505C1C510031216061710020
:10012F0071617071513171700E064C4E464A4A0E14
:08013F004E4E4E4208464848AE
:1002AB00E4F5BD75BC807F02FE2275F06484E5F039
:0802BB0075F00A84FDC2002267
:10018C007E80C2B40000E4FDEE30E704D2B78002FA
:10019C00C2B7C2B60000D2B600EE25E0FE0DBD041B
:1001AC00E7E4FDEF30E704D2B78002C2B7C2B60075
:1001BC0000D2B600EF25E0FF0DBD08E7D2B4000079
:0101CC002210
:100147007E05EEC43354E0FEE4FDEE30E704D2B79B
:100157008002C2B7C2B60000D2B600EE25E0FE0D9F
:10016700BD03E7EF25E025E0FFE4FDEF30E704D22C
:10017700B78002C2B7C2B60000D2B600EF25E0FFD3
:040187000DBD06E7BD
:01018B002251
:10025A00E4FEEF30E704D2B78002C2B7C2B60000AC
:0B026A00D2B600EF25E0FF0EBE08E753
:010275002266
:10020E00D2B4C2B6D2B7E4FF000FBF80FB7F52124A
:10021E00018C7F3012018CE4FF12018C7F0A1201D7
:0B022E008C7F0212018C7F0602018C05
:04008200AC07AB0517
:10008600E4FAC2B4ECC394045019EC2C24FEFAFF33
:10009600120147EB9000EF9330000424808000FFAC
:1000A60012025AEC640470207F07120147EB90019C
:1000B6002793FF12025AD2B4C2B47F09120147EB4A
:1000C60090013793FF12025AECD394044018EC2C9B
:1000D60004FAFF120147EB90010B93300004244011
:0800E6008000FF12025AD2B49F
:0100EE0022EF
:1002C300C2B4E4FF120147E4FDE4FF12025A0DBD7C
:0402D30011F7D2B499
:0102D7002204
:1002D800EF4488F5BC00000000E5BC30E4FB53BCEB
:0402E800EFAFBD2295
:09030A00759D011202AB0202769E
:09031300759D021202AB02027694
:09031C00E4F59D1202AC02027628
:10027600EF1FAA0670011E4A60107C137D88ED1DD3
:0A028600AA0470011C4A60E880F42D
:01029000224B
:1001CD008B0A8A0B890C43960C43950C759203127E
:1001DD00030AD2A2C2A3E4FF1202D8AB0DAA0EA944
:1001ED000FEF1202EC12031C120313D2A3C2A27F53
:1001FD00011202D8AB0AAA0BA90CEF1202EC0203F2
:01020D001CD4
:03032500DFFE22D6
:10029100AD07AC06ED1D70011C144C600C7FE11222
:0A02A10003257FE112032580EB2204
:10023900AB07AF031BEF60187FFA7E001202917FB4
:10024900FA1202917FFA1202917FFA12029180E268
:010259002282
:1000030012020E1202C3C2007D157F01120082C2CA
:10001300007D157F05120082750D00750E00750FAA
:10002300097B007A0079081201CDE50875F0648434
:10003300FDC2007F02120082E5081202B57F03129F
:100043000082E50875F00A84ADF0C2007F04120057
:1000530082E50975F06484FDC2007F06120082E523
:10006300091202B57F07120082E50975F00A84AD13
:0F007300F0C2007F081200827F031202398099C9
:030000000202FEFB
:0C02FE00787FE4F6D8FD75812002000333
:1002EC00BB010689828A83F0225002F722BBFE01F1
:0202FC00F322EB
:00000001FF
