:10043C005F063D2F666B7B0E7F6F7E735937797825
:10044C00FEFE016D3100206E54505C1C9F063D2F4A
:10045C00A6ABBB0EBFAFBEB39937B9B8FEFE016DEC
:10046C003100206E54505C1C5100312160617100D0
:10047C0071617071513171700E064C4E464A4A0EC4
:08048C004E4E4E42084648485E
:10051A00AE12AF137D3C7C001203E77F0A7E00CF48
:10052A00CDCFCECCCE0203E77D0A7C001203E7AD25
:10053A0007C201227FC87E000205DCAE12AF137C1F
:10054A000E7D100203E77C007D0A1203E7C2012236
:1004D9007E80C2800000E4FDEE30E704D283800212
:1004E900C283C2820000D28200EE25E0FE0DBD0467
:1004F900E7E4FDEF30E704D2838002C283C28200C1
:1005090000D28200EF25E0FF0DBD08E7D280000090
:0105190022BF
:100494007E05EEC43354E0FEE4FDEE30E704D2837F
:1004A4008002C283C2820000D28200EE25E0FE0DEB
:1004B400BD03E7EF25E025E0FFE4FDEF30E704D2DC
:1004C400838002C283C2820000D28200EF25E0FF53
:0404D4000DBD06E76D
:0104D8002201
:1005F600E4FEEF30E704D2838002C283C2820000A9
:0B060600D28200EF25E0FF0EBE08E7E7
:0106110022C6
:10058A00D280C282D283E4FF000FBF80FB7F521267
:10059A0004D97F301204D9E4FF1204D97F0A120465
:0B05AA00D97F021204D97F060204D999
:0402FF00AC07AB0598
:10030300E4FAC280ECC394045019EC2C24FEFAFFE7
:10031300120494EB90043C9330010424808000FF8A
:100323001205F6EC640470207F07120494EB90042A
:100333007493FF1205F6D280C2807F09120494EBF6
:1003430090048493FF1205F6ECD394044018EC2C2C
:1003530004FAFF120494EB900458933001042440F0
:080363008000FF1205F6D280B4
:01036B00226F
:10062D00C280E4FF120494E4FDE4FF1205F60DBD53
:04063D0011F7D2805F
:010641002296
:1005B500EF4488F5BC00000000E5BC30E4FB53BC0B
:1005C500EFAFBDEF75F004A4ADBE7C002DFFEC359B
:0305D500F0FE2213
:0F067800759D40E4F5BD75BC807F02FE02061241
:10061200EF1FAA0670011E4A60107C137D88ED1D33
:0A062200AA0470011C4A60E880F48D
:01062C0022AB
:070693007FFA12069A7F3284
:03069A00DFFE225E
:0405D8007F1E7E0004
:1005DC00AD07AC06ED1D70011C144C600C7FEB12CA
:0A05EC00069A7FEB12069A80EB22BC
:10065700E4FEC2B4120693D2B41206930EBE64F23D
:010667002270
:10064200E4FEC2B47FFA12069AD2B47FFA12069A74
:040652000EBE64EE86
:010656002281
:10023500750E00750F967D5A7C027B3F7A41C3EFA0
:10024500945AEE9402500C750E00750FC67D1E7BF8
:10025500307A3CC3EF941EEE9402500E750E007575
:100265000FE17C027D037B017A01C3EF9403EE94D9
:1002750002500E750E00750FFA7C017DE47B197A2C
:100285001FC3EF94E4EE9401500E750E01750F1324
:100295007C017DCB7B017A01C3EF94CBEE940150B9
:1002A5000E750E01750F2C7C017DB77B197A14C371
:1002B500EF94B7EE9401500E750E01750F5E7C013B
:1002C5007D8C7B327A2BC3EF948CEE9401500E75A6
:1002D5000E01750FF67C017D237B347A24C3EF9DD7
:1002E500FFEE9CFEAD037C001203D5AD021203E7C1
:0902F500C3E50F9FFFE50E9EFE1C
:0102FE0022DD
:10066800438902758C05758A05D2AFD2A9D28C222E
:03000B0002055A91
:10055A00C0E0C0D00511E51170020510B4C71CE552
:10056A0010B4041775100075110030000EE513451C
:10057A00126008E513151370021512D0D0D0E032BC
:10036C001205451205327F011203C61205507F0299
:10037C001202FFC2017D167F031203C67F3C1205D9
:10038C00271205327F041202FF1205457E007F3CC6
:10039C001205291205507F051202FFC2017D167F3E
:1003AC00061202FF12051AAD07C2017F071202FFE7
:1003BC0012051AC2017F080202FF1202FFAE12AF31
:0903CC00137C0E7D101203E722E0
:10000E0075BB70C20012067812066812058A1206B7
:10001E002D120657E4F512F513F50A750B01300093
:10002E00030200B61205D8050DE50D7002050C642D
:10003E00C47004E50C6409706FF50CF50D7F0612A3
:10004E0005B5C374FF9FFF74039EFE1202358E0822
:10005E008F09C2017F011202017F021202FFC2014B
:10006E007F031202017F041202FFD3E5099463E5B8
:10007E00089400400EAE08AF097D641205347F046B
:10008E001202FFAE08AF097D64120520AD07C20152
:10009E007F051202257F061202257F071202FFC27C
:1000AE00017D157F081202FFE50B65137004E50A4A
:1000BE006512600E12036C85120A85130BA200B333
:1000CE0092C020903C1205D8209036C200743C128B
:1000DE000215E4F92090237F197E001205DCE9C396
:1000EE009432500109E9D3942840E974781202152C
:1000FE0012053E7F641205DC80DAE4F510F511D2AC
:10010E00002091321205D820912CD3E513943BE5B3
:10011E00129400401374C42513F51374FF3512F5B1
:10012E0012E4F510F511D20012036C12065720914D
:10013E00051205D880F82092601205D820925AC276
:10014E0000E4F510F511F512F513C2017F0112024C
:10015E000B7F0212022D7F031202FFC2017D0F7F61
:10016E00041202FFC2017F0512020B7F0612022D3E
:10017E007F071202FFC2017D167F081202FF1206D0
:10018E00577FFA7E001205DC120657120657209290
:10019E00051205D880F812036C20000302002CE52E
:1001AE00134512600302002C12036CC200E4FBB272
:1001BE00C01206572090027B642091027B6420922D
:1001CE00027B6412053EB2C01206422090027B648E
:1001DE002091027B642092027B6412053E0BEBC3DE
:1001EE00941440CB3090FD3091FD3092FD12053EBF
:0301FE0002002CD0
:100201007D151202FFC2017D15227D161202FFC269
:10021100017D16222513F513E43512F51212036C34
:10022100120657221202FFC2017D15221202FFC2DD
:04023100017D162213
:030000000206876E
:0C068700787FE4F6D8FD75812002000E9B
:1003D500EF8DF0A4A8F0CF8CF0A428CE8DF0A42E3C
:0203E500FE22F6
:1003E700BC000BBE0029EF8DF084FFADF022E4CCFA
:1003F700F875F008EF2FFFEE33FEEC33FCEE9DECC3
:10040700984005FCEE9DFE0FD5F0E9E4CEFD22ED08
:10041700F8F5F0EE8420D21CFEADF075F008EF2F52
:10042700FFED33FD4007985006D5F0F222C398FD43
:050437000FD5F0EA22E0
:00000001FF
