:100222005F063D2F666B7B0E7F6F7E735937797841
:10023200FEFE016D3100206E54505C1C9F063D2F66
:10024200A6ABBB0EBFAFBEB39937B9B8FEFE016D08
:100252003100206E54505C1C5100312160617100EC
:1002620071617071513171700E064C4E464A4A0EE0
:080272004E4E4E42084648487A
:0E0397000218000008101412031814000007CA
:1003760075F00A84ADF0C2002275F00A84FDC20051
:010386002254
:1002BF007E80C2B40000E4FDEE30E704D2B78002C6
:1002CF00C2B7C2B60000D2B600EE25E0FE0DBD04E7
:1002DF00E7E4FDEF30E704D2B78002C2B7C2B60041
:1002EF0000D2B600EF25E0FF0DBD08E7D2B4000045
:0102FF0022DC
:10027A007E05EEC43354E0FEE4FDEE30E704D2B767
:10028A008002C2B7C2B60000D2B600EE25E0FE0D6B
:10029A00BD03E7EF25E025E0FFE4FDEF30E704D2F8
:1002AA00B78002C2B7C2B60000D2B600EF25E0FF9F
:0402BA000DBD06E789
:0102BE00221D
:10032B00E4FEEF30E704D2B78002C2B7C2B60000DA
:0B033B00D2B600EF25E0FF0EBE08E781
:010346002294
:10030000D2B4C2B6D2B7E4FF000FBF80FB7F521257
:1003100002BF7F301202BFE4FF1202BF7F0A120247
:0B032000BF7F021202BF7F060202BF77
:0401B500AC07AB05E3
:1001B900E4FAC2B4ECC394045019EC2C24FEFAFFFF
:1001C90012027AEB9002229330000424808000FF0F
:1001D90012032BEC640470207F0712027AEB900261
:1001E9005A93FF12032BD2B4C2B47F0912027AEBDD
:1001F90090026A93FF12032BECD394044018EC2C61
:1002090004FAFF12027AEB90023E93300004244074
:080219008000FF12032BD2B498
:0102210022BA
:10036100C2B4E4FF12027AE4FDE4FF12032B0DBDD7
:0403710011F7D2B4FA
:010375002265
:0100060022D7
:0100070022D6
:10038700438902758C05758A05D2AFD2A9D28C2212
:03000B0002000EE2
:07000E00C0E0C0D075D0086E
:100015007F1F0519E51970020518D39456E5189444
:100025000E40727518007519000516E516D3943B38
:1000350040637516000515E515D3943B40577515B6
:10004500000514E514D39417404B7514000513E50A
:1000550012B4040AB40607B40904B40B011FE5126F
:10006500B402027F1CE51154037007E512B40202C5
:100075007F1DEF3395E0FED3E5139FEE6480F874A2
:10008500809840117513010512E512D3940C4005B3
:050095007512010511C8
:05009A00D0D0D0E032DF
:03000300DFFE22FB
:10034700AD07AC06ED1D70011C144C600C7FE1126B
:0A03570000037FE112000380EB2297
:10012B00120300120361120387120007120006E587
:10013B001412037F7F011201B5E5141203767F02BF
:10014B001201B5C2007D167F031201B5E51512032E
:10015B007F7F041201B5E5151203767F051201B5F9
:10016B00C2007D167F061201B5E51612037F7F07CD
:10017B001201B5E5161203767F081201B57FFA7EE0
:10018B0000120347209002051420910205152092BE
:10019B00021515E514D394174003E4F514E515D3B4
:0A01AB00943B408BE4F51502013A85
:0300000002009F5C
:0C009F00787FE4F6D8FD7581200200E6B1
:1000AB0002012BE493A3F8E493A34003F68001F23F
:1000BB0008DFF48029E493A3F85407240CC8C33356
:1000CB00C4540F4420C8834004F456800146F6DF25
:1000DB00E4800B0102040810204080900397E47E1B
:1000EB00019360BCA3FF543F30E509541FFEE4931A
:1000FB00A360010ECF54C025E060A840B8E493A3E1
:10010B00FAE493A3F8E493A3C8C582C8CAC583CA0B
:10011B00F0A3C8C582C8CAC583CADFE9DEE780BEC3
:0103A5000057
:00000001FF
